:020000040000FA
:10000000052800000000000009008316FF2390006F
:100010005730810083120730990099138C130C1309
:100020008C110C103B3085008B130B138B120B12B1
:100030008B118B13FF30EA20FF30EA20FF30EA20DB
:10004000FF30EA208501AE012C14A6010A21A70089
:10005000A60A0A21A800A60A0A21A900C030A805FC
:100060002816BA202030C120C030C1200130C12064
:100070002908C1202808C120BD200F30A705A717D7
:100080005D28A5200339031984282830EA20A520FB
:10009000033903198428AB00AA01FF30EA20A52008
:1000A000033903196B28AA0A2B1C5A28A70A271AF6
:1000B000A7035D28A703A71FA70ABA202230C120E3
:1000C0000530C1208830C1202708C120BD202C1C4C
:1000D0004D282C104128AA08031D8128AD012E149B
:1000E000BA202030C1202B1C7B28C330C120013016
:1000F000C120BD208428C130C1200130C120BD20D5
:100100008428A6012708F3202D30EA20AD0F4128CE
:100110002E1C41282E10BA202230C1200330C120CD
:10012000BA202330C120D520E1202308A900D52002
:10013000E6202308A800BD20A601A60A2808F3206F
:10014000A60AA9132908F3204128051C0134851C9F
:1001500002340034A416240865000034A4122408D4
:100160006500003424162408650000342412240895
:1001700065000034B220AE200034AE20B220AA20A8
:100180000034A3000830A200B620A31FC928AA206B
:10019000CA28AE20B220A30DA20BC428B620AA20E4
:1001A000B2200508A500B62000340830A200A30143
:1001B000A30DB620B220851A2314A20BD828B6208E
:1001C0000034AE20B220B620AA200034AA20B220EB
:1001D000B6200034A000A100851D1129A00BEC2839
:1001E000A10BEC28003483169A0026089B001A08FD
:1001F0001C149A06031908299A001C158B135530F4
:100200009D00AA309D009C148B179C1805291C1179
:1002100083120800831626089B001C141A088312F8
:100220000800851911298101851D14290108AF00D5
:100230001E302F02031C11292D302F020318112903
:100240008101851921290108AF000D302F02031CFF
:10025000112914302F0203181129B0013430840001
:10026000B1018001800C8101851D34290108AF0096
:1002700001302F02031C112903302F02031811290A
:100280008101851941290108AF0004302F02031CA8
:100290004E2908302F02031811298017B10AB11D09
:1002A0003229B00A30195629840A30293509340612
:1002B000031D112937093606031D1129053036069D
:1002C000031D63295A2806303606031D682956285F
:1002D00002303606031D6E292B14702803303606B3
:0A02E000031D74292B10702841281B
:084000000200090007000500A1
:02400E00843FED
:00000001FF
